:10000000FE2B00308A000408840A82070034023480
:1000100006340E340134033407340F341F343F34B4
:020020002D347D
:1005E4008312900191010C1CFD2A0E089007031838
:1005F400910A0F089107013003108E0D8F0DFF3EF5
:10060400031DFE2A013003108D0C8C0CFF3E031DCC
:10061400052B0C080D04031DF52A11088D00100884
:100624008C00080083128D1F1A2B85018601080097
:100634000D08803ACF0080304F02031D232B033076
:100644000C0203182D2B83120C08013E8400012098
:1006540085008601080083120D08803ACF0080309F
:100664004F02031D372B09300C02031808000E300B
:10067400831285000C08013E8400012086000800D6
:100684008312970198011208130403197A2B990114
:10069400990A931B592B01300310920D930DFF3EC1
:1006A400031D4E2B01309600160899074B2B013081
:1006B4000310970D980DFF3E031D5A2B13081502C6
:1006C400031D662B12081402031C6F2B12089402DC
:1006D4001308031C95039502171401300310930C9F
:1006E400920CFF3E031D702B01309902031D592B00
:1006F400180893001708920008000130831685003B
:1007040086018312A201A301A101A401A5019F01F5
:10071400A001B52BA101A10A093022062304031D5F
:10072400952BA201A30123088D0022088C00142319
:10073400033083129C008A309B0055309A009A0B38
:10074400A12B9B0BA12B9C0BA12BA82B013083125B
:10075400A2070318A30A0030A3070130A407031853
:10076400A50A0030A50705188C2B2103031DC32BF4
:10077400FF308500FF308600A1012508A000240871
:100784009F00240825040319B52B200893001F0893
:10079400920025088D0024088C0009308E0000305A
:1007A4008F00F22283120D0895000C089400422356
:1007B400831213089E0012089D001D08FF3E8C0042
:1007C4001E080318013EFF3E8D00142303308312DC
:1007D4009C008A309B0055309A009A0BEF2B9B0BA0
:1007E400EF2B9C0BEF2BF62B01308312A40200306D
:0C07F400031CA503A502B52B83017F2B7D
:02400E00F1FFC0
:00000001FF
